{
  "_format": "hh-sol-artifact-1",
  "contractName": "SimpleToken",
  "sourceName": "contracts/SimpleToken.sol",
  "abi": [
    {
      "inputs": [
        {
          "internalType": "string",
          "name": "name",
          "type": "string"
        },
        {
          "internalType": "string",
          "name": "symbol",
          "type": "string"
        },
        {
          "internalType": "uint256",
          "name": "totalSupply_",
          "type": "uint256"
        }
      ],
      "stateMutability": "nonpayable",
      "type": "constructor"
    },
    {
      "anonymous": false,
      "inputs": [
        {
          "indexed": true,
          "internalType": "address",
          "name": "owner",
          "type": "address"
        },
        {
          "indexed": true,
          "internalType": "address",
          "name": "spender",
          "type": "address"
        },
        {
          "indexed": false,
          "internalType": "uint256",
          "name": "value",
          "type": "uint256"
        }
      ],
      "name": "Approval",
      "type": "event"
    },
    {
      "anonymous": false,
      "inputs": [
        {
          "indexed": true,
          "internalType": "address",
          "name": "from",
          "type": "address"
        },
        {
          "indexed": true,
          "internalType": "address",
          "name": "to",
          "type": "address"
        },
        {
          "indexed": false,
          "internalType": "uint256",
          "name": "value",
          "type": "uint256"
        }
      ],
      "name": "Transfer",
      "type": "event"
    },
    {
      "inputs": [
        {
          "internalType": "address",
          "name": "_minter",
          "type": "address"
        }
      ],
      "name": "allowMinter",
      "outputs": [],
      "stateMutability": "nonpayable",
      "type": "function"
    },
    {
      "inputs": [
        {
          "internalType": "address",
          "name": "owner",
          "type": "address"
        },
        {
          "internalType": "address",
          "name": "spender",
          "type": "address"
        }
      ],
      "name": "allowance",
      "outputs": [
        {
          "internalType": "uint256",
          "name": "",
          "type": "uint256"
        }
      ],
      "stateMutability": "view",
      "type": "function"
    },
    {
      "inputs": [
        {
          "internalType": "address",
          "name": "spender",
          "type": "address"
        },
        {
          "internalType": "uint256",
          "name": "amount",
          "type": "uint256"
        }
      ],
      "name": "approve",
      "outputs": [
        {
          "internalType": "bool",
          "name": "",
          "type": "bool"
        }
      ],
      "stateMutability": "nonpayable",
      "type": "function"
    },
    {
      "inputs": [
        {
          "internalType": "address",
          "name": "account",
          "type": "address"
        }
      ],
      "name": "balanceOf",
      "outputs": [
        {
          "internalType": "uint256",
          "name": "",
          "type": "uint256"
        }
      ],
      "stateMutability": "view",
      "type": "function"
    },
    {
      "inputs": [],
      "name": "decimals",
      "outputs": [
        {
          "internalType": "uint8",
          "name": "",
          "type": "uint8"
        }
      ],
      "stateMutability": "view",
      "type": "function"
    },
    {
      "inputs": [
        {
          "internalType": "address",
          "name": "spender",
          "type": "address"
        },
        {
          "internalType": "uint256",
          "name": "subtractedValue",
          "type": "uint256"
        }
      ],
      "name": "decreaseAllowance",
      "outputs": [
        {
          "internalType": "bool",
          "name": "",
          "type": "bool"
        }
      ],
      "stateMutability": "nonpayable",
      "type": "function"
    },
    {
      "inputs": [
        {
          "internalType": "address",
          "name": "spender",
          "type": "address"
        },
        {
          "internalType": "uint256",
          "name": "addedValue",
          "type": "uint256"
        }
      ],
      "name": "increaseAllowance",
      "outputs": [
        {
          "internalType": "bool",
          "name": "",
          "type": "bool"
        }
      ],
      "stateMutability": "nonpayable",
      "type": "function"
    },
    {
      "inputs": [
        {
          "internalType": "address",
          "name": "_reciever",
          "type": "address"
        },
        {
          "internalType": "uint256",
          "name": "_amount",
          "type": "uint256"
        }
      ],
      "name": "mint",
      "outputs": [],
      "stateMutability": "nonpayable",
      "type": "function"
    },
    {
      "inputs": [],
      "name": "name",
      "outputs": [
        {
          "internalType": "string",
          "name": "",
          "type": "string"
        }
      ],
      "stateMutability": "view",
      "type": "function"
    },
    {
      "inputs": [],
      "name": "supplyAvailable",
      "outputs": [
        {
          "internalType": "uint256",
          "name": "",
          "type": "uint256"
        }
      ],
      "stateMutability": "view",
      "type": "function"
    },
    {
      "inputs": [],
      "name": "symbol",
      "outputs": [
        {
          "internalType": "string",
          "name": "",
          "type": "string"
        }
      ],
      "stateMutability": "view",
      "type": "function"
    },
    {
      "inputs": [],
      "name": "totalSupply",
      "outputs": [
        {
          "internalType": "uint256",
          "name": "",
          "type": "uint256"
        }
      ],
      "stateMutability": "view",
      "type": "function"
    },
    {
      "inputs": [
        {
          "internalType": "address",
          "name": "to",
          "type": "address"
        },
        {
          "internalType": "uint256",
          "name": "amount",
          "type": "uint256"
        }
      ],
      "name": "transfer",
      "outputs": [
        {
          "internalType": "bool",
          "name": "",
          "type": "bool"
        }
      ],
      "stateMutability": "nonpayable",
      "type": "function"
    },
    {
      "inputs": [
        {
          "internalType": "address",
          "name": "from",
          "type": "address"
        },
        {
          "internalType": "address",
          "name": "to",
          "type": "address"
        },
        {
          "internalType": "uint256",
          "name": "amount",
          "type": "uint256"
        }
      ],
      "name": "transferFrom",
      "outputs": [
        {
          "internalType": "bool",
          "name": "",
          "type": "bool"
        }
      ],
      "stateMutability": "nonpayable",
      "type": "function"
    }
  ],
  "bytecode": "0x60806040523480156200001157600080fd5b5060405162001c7638038062001c76833981810160405281019062000037919062000346565b8282816003908051906020019062000051929190620000be565b5080600490805190602001906200006a929190620000be565b5050508060068190555033600760006101000a81548173ffffffffffffffffffffffffffffffffffffffff021916908373ffffffffffffffffffffffffffffffffffffffff16021790555050505062000445565b828054620000cc906200040f565b90600052602060002090601f016020900481019282620000f057600085556200013c565b82601f106200010b57805160ff19168380011785556200013c565b828001600101855582156200013c579182015b828111156200013b5782518255916020019190600101906200011e565b5b5090506200014b91906200014f565b5090565b5b808211156200016a57600081600090555060010162000150565b5090565b6000604051905090565b600080fd5b600080fd5b600080fd5b600080fd5b6000601f19601f8301169050919050565b7f4e487b7100000000000000000000000000000000000000000000000000000000600052604160045260246000fd5b620001d7826200018c565b810181811067ffffffffffffffff82111715620001f957620001f86200019d565b5b80604052505050565b60006200020e6200016e565b90506200021c8282620001cc565b919050565b600067ffffffffffffffff8211156200023f576200023e6200019d565b5b6200024a826200018c565b9050602081019050919050565b60005b83811015620002775780820151818401526020810190506200025a565b8381111562000287576000848401525b50505050565b6000620002a46200029e8462000221565b62000202565b905082815260208101848484011115620002c357620002c262000187565b5b620002d084828562000257565b509392505050565b600082601f830112620002f057620002ef62000182565b5b8151620003028482602086016200028d565b91505092915050565b6000819050919050565b62000320816200030b565b81146200032c57600080fd5b50565b600081519050620003408162000315565b92915050565b60008060006060848603121562000362576200036162000178565b5b600084015167ffffffffffffffff8111156200038357620003826200017d565b5b6200039186828701620002d8565b935050602084015167ffffffffffffffff811115620003b557620003b46200017d565b5b620003c386828701620002d8565b9250506040620003d6868287016200032f565b9150509250925092565b7f4e487b7100000000000000000000000000000000000000000000000000000000600052602260045260246000fd5b600060028204905060018216806200042857607f821691505b602082108114156200043f576200043e620003e0565b5b50919050565b61182180620004556000396000f3fe608060405234801561001057600080fd5b50600436106100ea5760003560e01c806340c10f191161008c578063a457c2d711610066578063a457c2d71461025f578063a9059cbb1461028f578063b11e0acb146102bf578063dd62ed3e146102dd576100ea565b806340c10f19146101f557806370a082311461021157806395d89b4114610241576100ea565b806318160ddd116100c857806318160ddd1461015957806323b872dd14610177578063313ce567146101a757806339509351146101c5576100ea565b806306fdde03146100ef578063095ea7b31461010d578063150a64801461013d575b600080fd5b6100f761030d565b6040516101049190610ef7565b60405180910390f35b61012760048036038101906101229190610fb2565b61039f565b604051610134919061100d565b60405180910390f35b61015760048036038101906101529190611028565b6103c2565b005b6101616104ad565b60405161016e9190611064565b60405180910390f35b610191600480360381019061018c919061107f565b6104b7565b60405161019e919061100d565b60405180910390f35b6101af6104e6565b6040516101bc91906110ee565b60405180910390f35b6101df60048036038101906101da9190610fb2565b6104ef565b6040516101ec919061100d565b60405180910390f35b61020f600480360381019061020a9190610fb2565b610526565b005b61022b60048036038101906102269190611028565b610625565b6040516102389190611064565b60405180910390f35b61024961066d565b6040516102569190610ef7565b60405180910390f35b61027960048036038101906102749190610fb2565b6106ff565b604051610286919061100d565b60405180910390f35b6102a960048036038101906102a49190610fb2565b610776565b6040516102b6919061100d565b60405180910390f35b6102c7610799565b6040516102d49190611064565b60405180910390f35b6102f760048036038101906102f29190611109565b61079f565b6040516103049190611064565b60405180910390f35b60606003805461031c90611178565b80601f016020809104026020016040519081016040528092919081815260200182805461034890611178565b80156103955780601f1061036a57610100808354040283529160200191610395565b820191906000526020600020905b81548152906001019060200180831161037857829003601f168201915b5050505050905090565b6000806103aa610826565b90506103b781858561082e565b600191505092915050565b3373ffffffffffffffffffffffffffffffffffffffff16600760009054906101000a900473ffffffffffffffffffffffffffffffffffffffff1673ffffffffffffffffffffffffffffffffffffffff1614610452576040517f08c379a0000000000000000000000000000000000000000000000000000000008152600401610449906111f6565b60405180910390fd5b6001600560008373ffffffffffffffffffffffffffffffffffffffff1673ffffffffffffffffffffffffffffffffffffffff16815260200190815260200160002060006101000a81548160ff02191690831515021790555050565b6000600254905090565b6000806104c2610826565b90506104cf8582856109f9565b6104da858585610a85565b60019150509392505050565b60006012905090565b6000806104fa610826565b905061051b81858561050c858961079f565b6105169190611245565b61082e565b600191505092915050565b60011515600560003373ffffffffffffffffffffffffffffffffffffffff1673ffffffffffffffffffffffffffffffffffffffff16815260200190815260200160002060009054906101000a900460ff161515146105b9576040517f08c379a00000000000000000000000000000000000000000000000000000000081526004016105b0906112e7565b60405180910390fd5b8060065410156105fe576040517f08c379a00000000000000000000000000000000000000000000000000000000081526004016105f590611353565b60405180910390fd5b80600660008282546106109190611373565b925050819055506106218282610cfd565b5050565b60008060008373ffffffffffffffffffffffffffffffffffffffff1673ffffffffffffffffffffffffffffffffffffffff168152602001908152602001600020549050919050565b60606004805461067c90611178565b80601f01602080910402602001604051908101604052809291908181526020018280546106a890611178565b80156106f55780601f106106ca576101008083540402835291602001916106f5565b820191906000526020600020905b8154815290600101906020018083116106d857829003601f168201915b5050505050905090565b60008061070a610826565b90506000610718828661079f565b90508381101561075d576040517f08c379a000000000000000000000000000000000000000000000000000000000815260040161075490611419565b60405180910390fd5b61076a828686840361082e565b60019250505092915050565b600080610781610826565b905061078e818585610a85565b600191505092915050565b60065481565b6000600160008473ffffffffffffffffffffffffffffffffffffffff1673ffffffffffffffffffffffffffffffffffffffff16815260200190815260200160002060008373ffffffffffffffffffffffffffffffffffffffff1673ffffffffffffffffffffffffffffffffffffffff16815260200190815260200160002054905092915050565b600033905090565b600073ffffffffffffffffffffffffffffffffffffffff168373ffffffffffffffffffffffffffffffffffffffff16141561089e576040517f08c379a0000000000000000000000000000000000000000000000000000000008152600401610895906114ab565b60405180910390fd5b600073ffffffffffffffffffffffffffffffffffffffff168273ffffffffffffffffffffffffffffffffffffffff16141561090e576040517f08c379a00000000000000000000000000000000000000000000000000000000081526004016109059061153d565b60405180910390fd5b80600160008573ffffffffffffffffffffffffffffffffffffffff1673ffffffffffffffffffffffffffffffffffffffff16815260200190815260200160002060008473ffffffffffffffffffffffffffffffffffffffff1673ffffffffffffffffffffffffffffffffffffffff168152602001908152602001600020819055508173ffffffffffffffffffffffffffffffffffffffff168373ffffffffffffffffffffffffffffffffffffffff167f8c5be1e5ebec7d5bd14f71427d1e84f3dd0314c0f7b2291e5b200ac8c7c3b925836040516109ec9190611064565b60405180910390a3505050565b6000610a05848461079f565b90507fffffffffffffffffffffffffffffffffffffffffffffffffffffffffffffffff8114610a7f5781811015610a71576040517f08c379a0000000000000000000000000000000000000000000000000000000008152600401610a68906115a9565b60405180910390fd5b610a7e848484840361082e565b5b50505050565b600073ffffffffffffffffffffffffffffffffffffffff168373ffffffffffffffffffffffffffffffffffffffff161415610af5576040517f08c379a0000000000000000000000000000000000000000000000000000000008152600401610aec9061163b565b60405180910390fd5b600073ffffffffffffffffffffffffffffffffffffffff168273ffffffffffffffffffffffffffffffffffffffff161415610b65576040517f08c379a0000000000000000000000000000000000000000000000000000000008152600401610b5c906116cd565b60405180910390fd5b610b70838383610e54565b60008060008573ffffffffffffffffffffffffffffffffffffffff1673ffffffffffffffffffffffffffffffffffffffff16815260200190815260200160002054905081811015610bf6576040517f08c379a0000000000000000000000000000000000000000000000000000000008152600401610bed9061175f565b60405180910390fd5b8181036000808673ffffffffffffffffffffffffffffffffffffffff1673ffffffffffffffffffffffffffffffffffffffff16815260200190815260200160002081905550816000808573ffffffffffffffffffffffffffffffffffffffff1673ffffffffffffffffffffffffffffffffffffffff168152602001908152602001600020600082825401925050819055508273ffffffffffffffffffffffffffffffffffffffff168473ffffffffffffffffffffffffffffffffffffffff167fddf252ad1be2c89b69c2b068fc378daa952ba7f163c4a11628f55a4df523b3ef84604051610ce49190611064565b60405180910390a3610cf7848484610e59565b50505050565b600073ffffffffffffffffffffffffffffffffffffffff168273ffffffffffffffffffffffffffffffffffffffff161415610d6d576040517f08c379a0000000000000000000000000000000000000000000000000000000008152600401610d64906117cb565b60405180910390fd5b610d7960008383610e54565b8060026000828254610d8b9190611245565b92505081905550806000808473ffffffffffffffffffffffffffffffffffffffff1673ffffffffffffffffffffffffffffffffffffffff168152602001908152602001600020600082825401925050819055508173ffffffffffffffffffffffffffffffffffffffff16600073ffffffffffffffffffffffffffffffffffffffff167fddf252ad1be2c89b69c2b068fc378daa952ba7f163c4a11628f55a4df523b3ef83604051610e3c9190611064565b60405180910390a3610e5060008383610e59565b5050565b505050565b505050565b600081519050919050565b600082825260208201905092915050565b60005b83811015610e98578082015181840152602081019050610e7d565b83811115610ea7576000848401525b50505050565b6000601f19601f8301169050919050565b6000610ec982610e5e565b610ed38185610e69565b9350610ee3818560208601610e7a565b610eec81610ead565b840191505092915050565b60006020820190508181036000830152610f118184610ebe565b905092915050565b600080fd5b600073ffffffffffffffffffffffffffffffffffffffff82169050919050565b6000610f4982610f1e565b9050919050565b610f5981610f3e565b8114610f6457600080fd5b50565b600081359050610f7681610f50565b92915050565b6000819050919050565b610f8f81610f7c565b8114610f9a57600080fd5b50565b600081359050610fac81610f86565b92915050565b60008060408385031215610fc957610fc8610f19565b5b6000610fd785828601610f67565b9250506020610fe885828601610f9d565b9150509250929050565b60008115159050919050565b61100781610ff2565b82525050565b60006020820190506110226000830184610ffe565b92915050565b60006020828403121561103e5761103d610f19565b5b600061104c84828501610f67565b91505092915050565b61105e81610f7c565b82525050565b60006020820190506110796000830184611055565b92915050565b60008060006060848603121561109857611097610f19565b5b60006110a686828701610f67565b93505060206110b786828701610f67565b92505060406110c886828701610f9d565b9150509250925092565b600060ff82169050919050565b6110e8816110d2565b82525050565b600060208201905061110360008301846110df565b92915050565b600080604083850312156111205761111f610f19565b5b600061112e85828601610f67565b925050602061113f85828601610f67565b9150509250929050565b7f4e487b7100000000000000000000000000000000000000000000000000000000600052602260045260246000fd5b6000600282049050600182168061119057607f821691505b602082108114156111a4576111a3611149565b5b50919050565b7f6e6f7420746865206f776e657200000000000000000000000000000000000000600082015250565b60006111e0600d83610e69565b91506111eb826111aa565b602082019050919050565b6000602082019050818103600083015261120f816111d3565b9050919050565b7f4e487b7100000000000000000000000000000000000000000000000000000000600052601160045260246000fd5b600061125082610f7c565b915061125b83610f7c565b9250827fffffffffffffffffffffffffffffffffffffffffffffffffffffffffffffffff038211156112905761128f611216565b5b828201905092915050565b7f6e6f7420616c6c6f77656420746f206d696e7400000000000000000000000000600082015250565b60006112d1601383610e69565b91506112dc8261129b565b602082019050919050565b60006020820190508181036000830152611300816112c4565b9050919050565b7f6e6f206d6f726520746f6b656e20617661696c61626c65000000000000000000600082015250565b600061133d601783610e69565b915061134882611307565b602082019050919050565b6000602082019050818103600083015261136c81611330565b9050919050565b600061137e82610f7c565b915061138983610f7c565b92508282101561139c5761139b611216565b5b828203905092915050565b7f45524332303a2064656372656173656420616c6c6f77616e63652062656c6f7760008201527f207a65726f000000000000000000000000000000000000000000000000000000602082015250565b6000611403602583610e69565b915061140e826113a7565b604082019050919050565b60006020820190508181036000830152611432816113f6565b9050919050565b7f45524332303a20617070726f76652066726f6d20746865207a65726f2061646460008201527f7265737300000000000000000000000000000000000000000000000000000000602082015250565b6000611495602483610e69565b91506114a082611439565b604082019050919050565b600060208201905081810360008301526114c481611488565b9050919050565b7f45524332303a20617070726f766520746f20746865207a65726f20616464726560008201527f7373000000000000000000000000000000000000000000000000000000000000602082015250565b6000611527602283610e69565b9150611532826114cb565b604082019050919050565b600060208201905081810360008301526115568161151a565b9050919050565b7f45524332303a20696e73756666696369656e7420616c6c6f77616e6365000000600082015250565b6000611593601d83610e69565b915061159e8261155d565b602082019050919050565b600060208201905081810360008301526115c281611586565b9050919050565b7f45524332303a207472616e736665722066726f6d20746865207a65726f20616460008201527f6472657373000000000000000000000000000000000000000000000000000000602082015250565b6000611625602583610e69565b9150611630826115c9565b604082019050919050565b6000602082019050818103600083015261165481611618565b9050919050565b7f45524332303a207472616e7366657220746f20746865207a65726f206164647260008201527f6573730000000000000000000000000000000000000000000000000000000000602082015250565b60006116b7602383610e69565b91506116c28261165b565b604082019050919050565b600060208201905081810360008301526116e6816116aa565b9050919050565b7f45524332303a207472616e7366657220616d6f756e742065786365656473206260008201527f616c616e63650000000000000000000000000000000000000000000000000000602082015250565b6000611749602683610e69565b9150611754826116ed565b604082019050919050565b600060208201905081810360008301526117788161173c565b9050919050565b7f45524332303a206d696e7420746f20746865207a65726f206164647265737300600082015250565b60006117b5601f83610e69565b91506117c08261177f565b602082019050919050565b600060208201905081810360008301526117e4816117a8565b905091905056fea2646970667358221220b8f446bffcecf37d4212f2b0411ac1671a3c90bc6c4447b06943040af86b80a864736f6c63430008090033",
  "linkReferences": {},
  "deployedLinkReferences": {}
}